:020000040800F2
:10000000780700200D0C0008E9020008EB02000848
:10001000EF020008F3020008F702000800000000E9
:10002000000000000000000000000000FB020008CB
:10003000FD02000800000000FF02000801030008A4
:10004000270C0008270C0008270C0008270C0008C4
:10005000270C0008270C0008270C0008270C0008B4
:10006000270C0008270C0008270C0008270C0008A4
:10007000270C0008270C0008270C0008270C000894
:10008000270C0008270C0008270C0008270C000884
:10009000270C0008270C0008270C0008270C000874
:1000A000270C0008270C0008270C0008270C000864
:1000B000270C0008270C0008270C0008270C000854
:1000C000270C0008270C0008270C0008270C000844
:1000D000270C0008810B0008270C0008270C0008DB
:1000E000270C0008270C0008270C0008270C000824
:1000F000270C0008270C0008270C0008270C000814
:10010000270C0008270C0008270C0008270C000803
:10011000270C0008270C0008270C0008270C0008F3
:10012000270C0008270C0008270C0008270C0008E3
:10013000270C0008270C0008270C0008270C0008D3
:10014000270C0008270C0008270C0008270C0008C3
:10015000270C0008270C0008270C0008270C0008B3
:10016000270C0008270C0008270C0008270C0008A3
:10017000270C0008270C0008270C0008270C000893
:10018000270C0008270C000800F002F800F04FF8D8
:100190000AA090E8000C82448344AAF10107DA45E2
:1001A00001D100F044F8AFF2090EBAE80F0013F0E5
:1001B000010F18BFFB1A43F0010318472834000051
:1001C00048340000103A24BF78C878C1FAD85207E2
:1001D00024BF30C830C144BF04680C6070470000C1
:1001E0000023002400250026103A28BF78C1FBD840
:1001F000520728BF30C148BF0B607047662903F023
:100200005881642901F0AA86782901F0E18600204E
:1002100070471FB503F043F902F01CFA04000020F8
:10022000002102F073FFE0601FBD10B510BD02F0A9
:1002300027FB1146FFF7EDFF00F008F802F045FB41
:1002400003B4FFF7F2FF03BC00F036FC2DED028B88
:1002500000244FF4A06000F0F9FCA82000F0AAFBF5
:100260004FF4E13000F036FC00F054F900F072F980
:1002700000F0F3FA22E041F2883094FBF0F100FB49
:100280001140C8B90E48006803F098F841EC180B0B
:1002900053EC182B0BA001F02DFE00F0E5FA0848F6
:1002A000006803F08BF841EC180BB0EE480AF0EE52
:1002B000680A00F09BF90024601C84B2DBE70000B0
:1002C000300000200D0A20206D61785F363637350A
:1002D0005F74656D705F6465746563743A2025347E
:1002E0002E326620200D0A00704700BFFEE700BFD7
:1002F000FEE700BFFEE700BFFEE7704770477047AC
:10030000704700000CB5002001900090764800680E
:1003100040F480307449086000BF7348006800F4FE
:10032000003000900198401C0190009818B9019885
:10033000B0F5A04FF1D16C48006800F4003010B166
:100340000120009001E0002000900098012846D193
:1003500065484030006840F0805063494031086093
:100360006248006840F44040604908605E480830D8
:1003700000685D49083108600846006840F40040A4
:1003800008600846006840F4A05008605848091FFB
:100390000860081F006840F08070091F086000BFF7
:1003A0005148006800F000700028F9D040F2057054
:1003B000504908604C480830006820F003004A4962
:1003C000083108600846006840F00200086000BF7D
:1003D00045480830006800F00C000828F8D10CBD32
:1003E00010B54548006840F47000434908603E4835
:1003F000006840F001003C49086000203A4908319B
:100400000860394800683D490840374908603C4861
:10041000091D0860081F006820F48020091F08607B
:10042000002031490C310860FFF76CFF4FF000608D
:1004300031498039086010BD70B5002000220223C8
:1004400000240221284D08352D6805F00C0020B14C
:10045000042806D0082834D107E02A4D2A4E3560FA
:1004600033E02A4D284E35602FE01F4D2D1D2D689D
:10047000C5F380541C4D2D1D2D6805F03F0154B16E
:10048000224DB5FBF1F5184E361D3668C6F38816B9
:1004900005FB06F209E01B4DB5FBF1F5124E361DCA
:1004A0003668C6F3881605FB06F20F4D2D1D2D6824
:1004B000C5F301456D1C6B00B2FBF3F5124E3560C0
:1004C00003E0104D104E356000BF00BF064D0835EB
:1004D0002D68C5F303150E4E705D0B4D2D68C5409C
:1004E000094E356070BD00000038024000700040C9
:1004F00008544007003C024088ED00E0FFFFF6FE94
:10050000103000240024F4000000002000127A00C3
:10051000040000201CB50121202000F02BFF4FF427
:10052000C060009001208DF8040000208DF80600C6
:1005300003208DF8050001208DF807006946044866
:1005400000F07AFC4FF4C061014800F0F1FC1CBDE2
:10055000001402401CB50121082000F00BFF4FF6EB
:10056000FF70009001208DF8040000208DF8060037
:1005700003208DF8050001208DF8070069466648C4
:1005800000F05AFC4FF6FF71634800F0D1FC1CBD2F
:1005900010B50446FF21604800F0CCFCA1B25E48D3
:1005A00000F0C6FC10BDF8B505460C4616460027FF
:1005B0005A480096035D22462946594801F09AFCA4
:1005C0005648075D0EB147F080073846FFF7E0FF59
:1005D0004FF4F051504800F0ABFC5248425D01200E
:1005E000904081B24C4800F0A5FCF8BD70B52DEDEF
:1005F000068B86B0F0EE408A0020029003900490B3
:100600000590494890ED000AB0EE408ABCEEC80A59
:1006100010EE105A9FED450AB4EEC08AF1EE10FAC2
:1006200004DD9FED420AB0EE408A47E09FED400AAC
:10063000B4EEC08AF1EE10FA11DB9FED3E0AB4EE83
:10064000C08AF1EE10FA0AD201200390B2EE040A39
:1006500028EE000ABCEEC00A10EE105A2EE0B2EEF0
:10066000040AB4EEC08AF1EE10FA11DB9FED300AF5
:10067000B4EEC08AF1EE10FA0AD2012004909FED88
:100680002C0A28EE000ABCEEC00A10EE105A15E043
:10069000B5EEC08AF1EE10FA10DBB2EE040AB4EE49
:1006A000C08AF1EE10FA09D2012005909FED210ACF
:1006B00028EE000ABCEEC00A10EE105A1E4880ED6B
:1006C000008A006802F07AFE41EC190B18EE100A5D
:1006D00002F074FE41EC1A0B8DED009B53EC1A2BCB
:1006E000294616A001F006FC00240EE00A20B5FB06
:1006F000F0F100FB1156B5FBF0F502A850F82420EC
:100700003146601CFFF74FFF641C042CEED306B08B
:10071000BDEC068B70BD0000000C024019000020EB
:10072000843500081400002030000020003C1C46E6
:100730000000C84200007A442C0000200D0A20323C
:10074000206469735F6E756D5F6D756C74792025BB
:100750006420206469735F6E756D2025322E3266C9
:100760002020746573745F666C6F61742025322E6F
:1007700032660D0A0000000000B587B0012108466E
:1007800000F0F8FD0121080300F04EFE052211469D
:100790005D4800F0DCFB052206215B4800F0D7FB3A
:1007A00005220721584800F0D2FBE02005900220E6
:1007B0008DF819008DF8180005A9534800F03CFB8E
:1007C0001020059002208DF8190001208DF81800E6
:1007D00005A94D4800F030FB10214B4800F0A8FB64
:1007E0000020ADF800004FF48270ADF80200002048
:1007F000ADF80400ADF80600ADF808004FF4007045
:10080000ADF80A001020ADF80C000020ADF80E0085
:100810000720ADF8100069463C4801F075F9012148
:100820003A4801F06BFA07B000BD10B500BF0221D5
:10083000364801F02DFB0028F9D0FF21334801F0A4
:10084000DEFA00BF0121314801F022FB0028F9D077
:100850002E4801F0D1FAC0B210BD10B5FFF78CFFE1
:100860002BA001F047FB10BD2DE9F0412DED068BCB
:100870009FED2D0AB0EE408A00202C490860FFF75A
:10088000D4FF05462C462402FFF7CFFF0546012082
:100890002749C1F890022C4304F00407660036098A
:1008A000304602F07AFC41EC1A0B9FED220B53EC20
:1008B000102B02F085FC41EC190B02F03DFC08EE18
:1008C000100ADCB1A7B918EE100A02F077FD41EC6E
:1008D000190B53EC192B214618A001F00BFB2248F1
:1008E00080ED008AB0EE480ABDEC068BBDE8F081D1
:1008F0001EA001F0FFFA9FED0C0AF5E722A001F01F
:10090000F9FA9FED090AEFE70000024000300140CC
:100910000D0A206D61785F363637355F696E697410
:100920002121210D0A000000000000009002404239
:1009300000004042000000000000D03FD4ADCABC1F
:10094000CAFDBEDDCAC7A3BA253034582C2020B555
:10095000B1C7B0CEC2B6C8CAC7A3BA25342E326654
:10096000A1A30D0A0000000030000020CEB4BCECB2
:10097000B2E2B5BDC8C8B5E7C5BCA3ACC7EBBCEC1B
:10098000B2E9A1A30D0A00006D617836363735C390
:10099000BBD3D0CAFDBEDDB7B5BBD8A3ACC7EBBCDB
:1009A000ECB2E96D617836363735C1ACBDD3A1A361
:1009B0000D0A000010B504466FF0040000F098F92D
:1009C000E11704EB5171C1F3C701394A11701046A8
:1009D000007800EB4001C1EBC0104FF6FF7101EA57
:1009E000C0003449088010BD0146314A12784A439C
:1009F0004FF0E0235A6100229A611A46126942F0D0
:100A000001021A6100BF4FF0E022106900F00102FC
:100A10001AB100F48032002AF5D04FF0E0221269BA
:100A200022F001024FF0E0231A6100229A61704720
:100A30000146204A12884A434FF0E0235A610022BF
:100A40009A611A46126942F001021A6100BF4FF022
:100A5000E022106900F001021AB100F48032002A8D
:100A6000F5D04FF0E022126922F001024FF0E023AE
:100A70001A6100229A61704770B504464FF40770FE
:100A800094FBF0F0C6B24FF4077094FBF0F100FB5A
:100A9000114085B205E04FF40770FFF7C9FF701EE3
:100AA000C6B2002EF7D115B12846FFF7C1FF70BDC1
:100AB0003400002036000020014600BF704700BF10
:100AC0004E4A128802F04002002AF9D0C2B24B4BC3
:100AD0009A80704710B588B004460121084600F09E
:100AE00049FC0121102000F09FFC07220921444805
:100AF00000F02DFA07220A21414800F028FA4FF4AD
:100B0000C060069002208DF81C008DF81D000020AA
:100B10008DF81E0001208DF81F0006A9384800F04E
:100B20008BF902940020ADF80C00ADF80E00ADF882
:100B30001000ADF814000C20ADF8120002A92F48E7
:100B400000F0D3FD01212D4800F057FE40212B4835
:100B500000F03BFF012240F22551284800F003FF3E
:100B600025208DF8040003208DF805008DF806007F
:100B700001208DF8070001A800F06DF808B010BD45
:100B800010B540F225511D4800F028FF10B31B4856
:100B900000F062FEC4B21B48008800F40040C8B9EF
:100BA0001848008800F4804060B10A2C03D000206F
:100BB0001449088020E01348008840F4004011499F
:100BC000088019E00D2C06D10E48008840F48040C2
:100BD0000C49088010E00B480088C0F30D000A495A
:100BE0000C5408480088401C0649088008460088C4
:100BF000C72801DD0020088010BD00000010014062
:100C0000000002403C0000205000002009488047BE
:100C100009480047FEE7FEE7FEE7FEE7FEE7FEE7DE
:100C2000FEE7FEE7FEE7FEE704480549054A064BF6
:100C300070470000E10300088901000878010020E6
:100C40007807002078030020780300203249014310
:100C5000324A1160704770B5002100230F22C4781A
:100C60001CB32E4C246804F4E064C4F5E064C4F3BF
:100C70000721C1F10404E3B20A4144789C40E1B287
:100C80008478144021430C07210E254C05786155CA
:100C9000047804F01F050124AC4005786D11AD0007
:100CA00005F1E025C5F8004109E0047804F01F05CE
:100CB0000124AC401B4D0678761145F8264070BDE6
:100CC000194A0A400243154B1B1F1A60704739B17D
:100CD000124A121D12680243104B1B1D1A6006E0D7
:100CE0000E4A121D126882430C4B1B1D1A6070477E
:100CF000042808D14FF0E021096941F004014FF0C8
:100D0000E022116107E04FF0E021096921F00401C0
:100D10004FF0E022116170470000FA050CED00E091
:100D200000E400E080E100E080FFFF1F10B5044612
:100D30009848844208D10121084600F086FB002132
:100D4000012000F082FB76E09348844208D1012123
:100D5000022000F07AFB0021022000F076FB6AE01E
:100D60008E48844208D10121042000F06EFB00214E
:100D7000042000F06AFB5EE08948844208D101212A
:100D8000082000F062FB0021082000F05EFB52E02A
:100D90008448844208D10121102000F056FB002134
:100DA000102000F052FB46E07F48844208D1012128
:100DB000202000F04AFB0021202000F046FB3AE012
:100DC0007A48844208D10121402000F03EFB0021F6
:100DD000402000F03AFB2EE07548844208D1012102
:100DE000802000F032FB0021802000F02EFB22E06A
:100DF0007048844208D10121801500F026FB0021B3
:100E0000A01500F022FB16E06B48844208D10121B6
:100E1000401500F01AFB0021601500F016FB0AE0F7
:100E20006648844207D10121001500F00EFB002125
:100E3000201500F00AFB10BDF0B50A460021002382
:100E4000002400BF3DE0012505FA01F3156805EA1D
:100E500003049C4234D105684F000326BE40B543CD
:100E6000056015794E00B540066835430560157973
:100E7000012D02D01579022D16D185684F00032669
:100E8000BE40B543856055794E00B5408668354310
:100E90008560456801268E40B54345604568967972
:100EA0008E40B6B235434560C5684F000326BE404C
:100EB000B543C560D5794E00B540C6683543C560B9
:100EC000491C1029BFD3F0BD4FF6FF71016000210E
:100ED000017141718171C171704708B54FF4803261
:100EE0000092009A0A430092009AC261C161009A7E
:100EF000C261C2690092C269009208BD0246002028
:100F000013690B400BB1012000E00020704701463F
:100F1000086980B270470246002053690B400BB14C
:100F2000012000E0002070470146486980B2704708
:100F300001837047418370470AB1018300E0418318
:100F400070474161704742694A4042617047F0B55D
:100F5000002300244D07ED0E02FA05F3CE1000F138
:100F6000200555F826504E07F70E0F26BE40B54314
:100F7000CF1000F1200646F82750CE1000F12005D2
:100F800055F8265045EA0304CE1000F1200545F837
:100F90002640F0BD0000024000040240000802406C
:100FA000000C0240001002400014024000180240F1
:100FB000001C0240002002400024024000280240A1
:100FC000F948006840F00100F74908600020F64940
:100FD00008310860F4480068F4490840F2490860A4
:100FE000F348091D0860F348EF4984310860F04870
:100FF0001038091D0860EC48006820F48020EA4998
:1010000008600020E8490C310860E7498C3108602D
:1010100070470021E44A921C117011460870704715
:1010200010B501460022002300204A11012A02D1F6
:10103000DD4C236808E0022A03D1DB4C70342368BE
:1010400002E0D94C7434236801F01F02012494405B
:101050001C400CB1012000E0002010BD38B500207C
:1010600000900024002500BF3120FFF7D9FF05467E
:101070000098401C00900098B0F5A04F01D0002DC2
:10108000F2D03120FFF7CCFF08B1012400E00024AA
:10109000204638BD01460020C34A106820F0F80001
:1010A00040EAC10010607047C349086070470021E2
:1010B000BD4A703211701170012802D004280AD183
:1010C00004E00121B84A7032117005E00521B64AEA
:1010D0007032117000E000BF00BF7047B749086070
:1010E000704770B5049C41EA82150126C6EB530691
:1010F00045EA0645054345EA0465AB4E361D3560B5
:1011000070BDAD4908667047820142EA0172A64B84
:1011100084331A607047A8498866704710B5830108
:1011200043EA016343EA02739F4C8834236010BD95
:10113000A14908677047A049C8647047024600206B
:10114000994B0833186820F0EC6042EA0103184319
:10115000954B08331860704702460020924B0833C5
:10116000186820F0784042EA010318438E4B083398
:1011700018607047014600208B4A0832106820F042
:10118000030008431060704787480830006800F08B
:101190000C00704701460020834A0832106820F096
:1011A000F000084310607047014600207E4A083274
:1011B000106820F4E050084310607047014600209A
:1011C000794A0832106820F4604040EAC10010609B
:1011D0007047F0B5002100220024022500260223DA
:1011E000714F08373F6807F00C0121B1042905D081
:1011F000082937D105E0724F076036E0714F07606C
:1012000033E0694F3F1D3F68C7F38056664F3F1D6F
:101210003F6807F03F036EB16A4FB7FBF3F7DFF8A3
:1012200088C10CF1040CDCF800C0CCF3881C07FB6F
:101230000CF40CE0624FB7FBF3F7DFF86CC10CF174
:10124000040CDCF800C0CCF3881C07FB0CF4564FF0
:101250003F1D3F68C7F301477F1C7D00B4FBF5F7D6
:10126000076002E0564F076000BF00BF4E4F0837CF
:101270003F6807F0F0010909534F7A5C0768D740CF
:101280004760494F08373F6807F4E051890A4E4FDD
:101290007A5C4768D7408760434F08373F6807F458
:1012A0006041490B484F7A5C4768D740C760F0BD42
:1012B000002100F44072B2F5407F0AD13A4A083268
:1012C000116821F4F811414A02401143364A0832AC
:1012D0001160354A70321268C0F30B031A43324B67
:1012E00070331A6070473549443908607047334994
:1012F0004039086070473649086070470146002051
:10130000294A8C32106820F01F004A1E1043264ADA
:101310008C321060704701460020234A8C321068DE
:1013200020F4F8504A1E40EA02201F4A8C32106016
:101330007047014600201C4A8C32106820F440108F
:1013400008431060704701460020174A8C3210682D
:1013500020F4400008431060704701460020124A04
:101360008C32106820F440300843106070471949EF
:101370000860704739B10C4A3032126802430A4B98
:1013800030331A6006E0084A303212688243064B56
:1013900030331A607047F9B1034A3432126802439D
:1013A000014B34331A601CE000380240FFFFF6EABC
:1013B000103000240030002000004742800E4742D9
:1013C0000024F40000127A003E000020FFFCFF0F12
:1013D0005C014742E01147428F4A126882438E4BBC
:1013E0001A60704739B18C4A121D126802438A4B49
:1013F0001B1D1A6006E0884A121D12688243864B44
:101400001B1D1A60704739B1834A0C3212680243BF
:10141000814B0C331A6006E07F4A0C32126882431B
:101420007D4B0C331A60704739B17B4A1032126819
:101430000243794B10331A6006E0774A1032126883
:101440008243754B10331A60704739B1724A243A9F
:1014500012680243704B243B1A6006E06E4A243A3D
:10146000126882436C4B243B1A60704739B16A4A58
:10147000203A12680243684B203B1A6006E0664A35
:10148000203A12688243644B203B1A60704739B19E
:10149000614A1C3A126802435F4B1C3B1A6006E02B
:1014A0005D4A1C3A126882435B4B1C3B1A607047D2
:1014B00039B1594A143A12680243574B143B1A6027
:1014C00006E0554A143A12688243534B143B1A60A3
:1014D000704739B1504A103A126802434E4B103BE4
:1014E0001A6006E04C4A103A126882434A4B103B9D
:1014F0001A60704739B1484A1C3212680243464BA1
:101500001C331A6006E0444A1C3212688243424B84
:101510001C331A60704739B13F4A203212680243C7
:101520003D4B20331A6006E03B4A2032126882436A
:10153000394B20331A60704739B1374A2432126868
:101540000243354B24331A6006E0334A24321268D2
:101550008243314B24331A60704739B12E4A2C3202
:10156000126802432C4B2C331A6006E02A4A2C32B4
:1015700012688243284B2C331A60704739B1264ACF
:10158000303212680243244B30331A6006E0224A9C
:10159000303212688243204B30331A607047012882
:1015A00008D11D493C31096841F008011A4A3C3212
:1015B000116007E018493C31096821F00801164A1A
:1015C0003C321160704739B1134A273A127802430E
:1015D000114B273B1A7006E00F4A273A12788243D4
:1015E0000D4B273B1A7070470B484030006840F0A5
:1015F0008070094940310860704701460020064A62
:10160000283A12680A400AB1012000E00020704721
:1016100001492639087070473438024010B5044635
:10162000FA48844208D101211020FFF752FF00211F
:101630001020FFF74EFF57E0F548844209D1012101
:101640004804FFF735FF00214FF40030FFF730FF6B
:101650004AE0F048844209D101218804FFF728FFBD
:1016600000214FF48020FFF723FF3DE0EA48844249
:1016700009D10121C804FFF71BFF00214FF400200E
:10168000FFF716FF30E0E548844209D10121080543
:10169000FFF70EFF00214FF48010FFF709FF23E052
:1016A000DF48844208D101212020FFF712FF0021EA
:1016B0002020FFF70EFF17E0DA48844209D101210C
:1016C0008807FFF7F5FE00214FF08040FFF7F0FE9E
:1016D0000AE0D548844207D101214005FFF7E8FE22
:1016E00000216005FFF7E4FE10BD2DE9FF47054628
:1016F0000E460024A14600BFA046B08900B100BF3D
:101700002C8A24F44054F08804432C82AC8941F2A2
:101710000C608443B08831890843718908430443CD
:10172000AC81AC8A24F44074B0890443AC8268462E
:10173000FFF74FFDB548854202D0B948854202D136
:10174000DDF80C9001E0DDF80890A88900F4004075
:1017500040B109EBC90000EB091031684900B0FB4A
:10176000F1F707E009EBC90000EB091031688900C7
:10177000B0FBF1F76420B7FBF0F00401200964210D
:1017800001FB1078A88900F4004040B1322000EB42
:10179000C800B0FBF1F000F00700044308E032207D
:1017A00000EB08106421B0FBF1F000F00F000443DF
:1017B0002C81BDE8FF874FF4165101600021818024
:1017C000C18001810C21418100218181704710B5C8
:1017D00002460020108A20F470600B884C88234356
:1017E0008C882343CC8823431843108210BD0021EA
:1017F000018041808180C180704721B1828942F49B
:101800000052828104E082894DF6FF731A40828182
:101810007047028B02F47F420283028B0A430283E9
:10182000704721B1828942F40042828103E08289BB
:10183000C2F30E028281704721B1828A42F40062B3
:10184000828204E0828A4FF2FF731A4082827047DC
:10185000C1F308028280704701468888C0F30800FF
:101860007047028A4FF6F0731A400282028A0A43D6
:101870000282704721B1828942F00202828104E033
:1018800082894FF6FD731A408281704782894FF238
:10189000FF731A40828182890A4382817047028ADB
:1018A0004FF6DF731A400282028A0A4302827047AF
:1018B00021B1028A42F48042028204E0028A4BF69D
:1018C000FF731A4002827047818941F001018181D2
:1018D000704721B1828A42F00802828204E0828A43
:1018E0004FF6F7731A4082827047028BD2B202839E
:1018F000028B42EA01220283704721B1828A42F0C0
:101900002002828204E0828A4FF6DF731A408282CC
:10191000704721B1828A42F01002828204E0828AFA
:101920004FF6EF731A4082827047828A4FF6FB733C
:101930001A408282828A0A438282704721B1828A57
:1019400042F00202828204E0828A4FF6FD731A405E
:10195000828270471AB1838A0B43838202E0838AB2
:101960008B4383827047F0B5034600240026002590
:10197000002040F66A17B94200D100BF1846C1F3F3
:10198000421401F01F06012707FA06F5012C01D1C8
:101990000C3004E0022C01D1103000E014301AB1F8
:1019A00007682F43076002E00768AF430760F0BD98
:1019B00002460020B1F5007F00D100BF13880B4024
:1019C0000BB1012000E00020704701F40072B2F575
:1019D000007F00D100BFCA430280704770B5024645
:1019E000002400230025002040F66A16B14200D1F1
:1019F00000BFC1F3421501F01F03012606FA03F3ED
:101A0000012D13D19689334017E0000000100140EA
:101A10000044004000480040004C0040005000409E
:101A20000014014000780040007C0040022D02D1EB
:101A3000168A334001E0968A33400C12012606FADA
:101A400004F41688344013B10CB1012000E00020EA
:101A500070BD10B50022002340F66A14A14200D1E7
:101A600000BF0A1201249440A3B2DC43048010BDDD
:101A700010B50446FB48844208D101218014FFF7C9
:101A800028FD0021A014FFF724FD3CE0F648844225
:101A900008D101210014FFF70BFD00212014FFF7EE
:101AA00007FD30E0F148844208D10121C013FFF75F
:101AB000FFFC0021E013FFF7FBFC24E0EC4884422C
:101AC00008D101214014FFF704FD00216014FFF745
:101AD00000FD18E0E748844209D101210805FFF71D
:101AE000F8FC00214FF48010FFF7F3FC0BE0E24814
:101AF000844208D101214805FFF7EBFC00214FF497
:101B00000010FFF7E6FC10BD10B50022028802F4B9
:101B100041520B884C8823438C882343CC88234331
:101B20000C8923434C8923438C892343CC89234349
:101B30001A430280838B4FF2FF74234083830B8A06
:101B4000038210BD2DE9F04F0025022300244FF041
:101B5000010900220026002794469046B0F81CA0F8
:101B60004FF2400B0AEA0B0AA0F81CA04FF0020A41
:101B7000A0F820A0858BD1F808A0BAF1020F01D1FE
:101B800000BF82E0B1F804A0BAF1000F02D14FF01B
:101B9000010901E04FF00209DFF8E0A2DAF800A045
:101BA0000AF4000ABAF1000F09D0DFF8D0A2DAF87F
:101BB00000A02AF4000ADFF8C4B2CBF800A0DFF8D6
:101BC000BCA20AF17C0ADAF800A0CAF3881CDFF88C
:101BD000ACA20AF17C0ADAF800A0CAF30278DFF8B6
:101BE0009CA2AAF1040ADAF800A00AF03F07DFF885
:101BF0008CA2AAF1040ADAF800A00AF4800ABAF565
:101C0000800F08D1DFF878A2BAFBF7FA0AFB0CFACA
:101C1000BAFBF8F607E0DFF86CA2BAFBF7FA0AFBAA
:101C20000CFABAFBF8F6B1F806A0BAF5007F0ED1AF
:101C30004FEA162A0AEB8A0A4FEA4A0AD1F808B094
:101C4000BAFBFBFA0AF1050A1FFA8AF20FE04FEA23
:101C5000491AB6FBFAFA0AEB8A0A4FEA4A0AD1F89D
:101C600008B0BAFBFBFA0AF1050A1FFA8AF24FF034
:101C70000A0AB2FBFAF202F00104A2EB040ACAF368
:101C80004F034FF6FF7A0AEA0424022B01DBFF2BF5
:101C900001DD02230024B1F806A04AEA040A4AEA58
:101CA000030AA0F820A0B1F804A0B1F80CB04AEAE9
:101CB0000B0AB1F802B04AEA0B0AB1F800B04AEADE
:101CC0000B0A4AF4006A4AEA05058583BDE8F08FED
:101CD0000021018041808180C18001814181818119
:101CE000C1810721018270470021018041808180EC
:101CF000C1800221816000218181704721B1028869
:101D000042F04002028004E002884FF6BF731A409E
:101D10000280704721B1828B42F48062828304E0AA
:101D2000828B4FF6FF331A408283704702884FF24E
:101D3000FF731A40028002880A4302807047B1F59F
:101D4000804F04D1028842F48042028004E002887D
:101D50004BF6FF731A40028070474FF6FF629142C4
:101D600004D0028842F48072028004E002884FF6B8
:101D7000FF631A400280704721B1828842F004025A
:101D8000828004E082884FF6FB731A40828070479D
:101D900021B1828842F01002828004E082884FF6EE
:101DA000EF731A408280704730B500220023848B85
:101DB0004FF240052C40848302240484828B0C88DB
:101DC000B4F5007F01D00C8814B94FF4807308E09B
:101DD0000C88B4F5407F03D00C88B4F5807F00D127
:101DE00000238C888D892C434D882C431C4344F45C
:101DF00000642243828330BD014688897047818117
:101E0000704721B1028842F40052028004E0028847
:101E10004DF6FF731A4002807047018841F48051EB
:101E20000180704702460020012901D0108B00E09C
:101E3000908A70470146088A70471AB183880B431D
:101E4000838002E083888B438380704730B5002411
:101E500000230C110125A540ABB2AAB185881D4312
:101E6000858014E00030014000380040003C004014
:101E70000034014000500140005401400838024045
:101E800000127A000024F40085889D43858030BDCF
:101E90000246002013890B400BB1012000E0002016
:101EA0007047CA4302817047F0B502460020002403
:101EB0000023002501F00F070126BE40B4B20B112C
:101EC00001269E40B3B2968806EA0305168926408D
:101ED00016B10DB1012000E00020F0BD10B50022C8
:101EE00001F00F040123A3409AB2D343038110BD34
:101EF000704700000FB4044910B503AA029800F01F
:101F000097FB10BC5DF814FB3800002070B5044648
:101F100085690068C10601D5302600E02026C0078B
:101F200007D070BDD4E9012130469047206A401C9B
:101F300020626D1EF6D570BD70B5044685690078C7
:101F4000C00707D170BDD4E9012120209047206A45
:101F5000401C20626D1EF6D570BD00002DE9F041D9
:101F60000646002410687529314615A510D0AFF338
:101F70000080002802DA404212A507E031688A0793
:101F800001D511A502E0490704D510A5012401E0FF
:101F9000AFF3008000210A2306F1240707E0B0FB1D
:101FA000F3F203FB1200303078541046491C00282D
:101FB000F5D123462A463046BDE8F04100F0D4B8BA
:101FC000000000002D0000002B0000002000000099
:101FD00070B504460D4621461068AFF30080218895
:101FE000090502D50F4A7A4402E00E4A7A440E32BD
:101FF000002104F1240305E000F00F060009965DBE
:102000005E54491C0028F7D120780023000704D52E
:10201000702D02D009B1022311322046BDE8704074
:1020200000F0A2B8CC1400002DE9F05F8946044608
:102030004FF0000ADFF824B1FB44C0F820A020468E
:10204000E168884700287DD0252806D0D4E9012101
:102050009047206A401C2062F1E700255F46204639
:10206000E16888472028064607DB312E05D2B819DB
:1020700010F8200C08B10543F1E7A80701D525F0B9
:102080000405C4F81CA00027C4F818A02A2E09D003
:10209000304601F034F838B304EB8708303EC8F816
:1020A000186019E059F8041B204604EB870291617F
:1020B000E1688847012F064618D1E069002820DA38
:1020C00025F020051DE0D8F8180000EB800006EB95
:1020D00040003038C8F818002046E16888470646B6
:1020E00001F00DF80028EED1012F0AD02E2E08D1D4
:1020F0002046E16888477F1C0646022F45F02005F0
:10210000C4DBA069002803DA404245F00105A06164
:10211000E80701D025F01005A6B1A6F14100192865
:1021200002D8203645F400654A46314620462560EF
:102130004D46FEF763F860B1012807D0ED1D25F08C
:10214000070000E007E000F1080978E705F104095D
:1021500075E730467AE7206ABDE8F09FA2140000D8
:1021600070477047704770472DE9F0470D46994614
:102170009246044600F124080168880604D5E06907
:1021800021F01001216000E00120A84201DD471B81
:1021900000E00027A1697A1902EB0900081AA06182
:1021A0002078C00602D42046FFF7B0FE002608E0E3
:1021B000D4E901211AF806009047206A401C761CD9
:1021C00020624E45F4DB2078C0060AD52046FFF792
:1021D0009DFE06E0D4E9012130209047206A401C92
:1021E0002062381EA7F10107F4DC07E0D4E90121E1
:1021F00018F805009047206A401C2062281EA5F1AF
:102200000105F3DC2046FFF797FE2078000602D593
:102210000220BDE8F0870120FBE770472DE9FF4F62
:102220000C461E464FF0FF378BB0D2E90001DDF8B7
:1022300060800A908A46C1F30A5505B93D460021DF
:1022400008464FF00000BAF1000F00F4400005DA34
:1022500000EB80004FF4400101EA50004FEA905932
:10226000B9F1010F00DDB9460A9850EA4A000ED0D4
:1022700044F61050A5F2FF3545432F14B8F1000F76
:102280001ED07542291E1EDDC9F100021CE0B8F106
:10229000010F4FF0000001D0302103E0F24305E0D0
:1022A0002154401CB042FBDB304600220021215467
:1022B0000B99C1F80880C1E900200FB0BDE8F08F8C
:1022C000BD1B6D1CDEE74A4600DA694206A800F035
:1022D00063FA06AB93E8070003AB83E807005046B8
:1022E0000A9900F039FB8DE80700A0F500501F386F
:1022F00000900398002D09DD42F21F014A46084470
:1023000003A90390684600F098FD08E0A0F500508E
:102310004A461F3803A90390684600F0A2FD8DE8E5
:1023200007000004000C03D04FF0FF30410800E02C
:102330001046B8F1000F03D00022009215461EE0AF
:10234000751E05D400F08AF9303262556D1EF9D53C
:10235000B3460122084302D000227F1C04E020780B
:10236000302801D100227F1E002A099786D01DE067
:10237000112D07DA00F072F9303262556D1C50EA07
:102380000102F5D1084302D00098C8B10EE0002147
:10239000681E05E0235C625C63542254401E491CA5
:1023A0008142F7DBAB46A81B401E0990002004F8D1
:1023B0000B000B98099AC0F80880C0E9002B7CE755
:1023C00011264FF0000859E72DE9F04F88460446E2
:1023D000D21D22F0070191B0D1E90001CDE90A0137
:1023E00000F075FE02460B98C00F01D02D2007E0CB
:1023F0002068810701D52B2002E0202101EAC000DE
:10240000032A099001D0072A05DB034641462046EE
:1024100000F082F909E12078800601D5E06900E04A
:102420000620B8F1650F814606D0B8F1660F18D0C6
:10243000B8F1670F70D131E00020B9F1110F0090B1
:1024400001DB112301E009F101030AAA01A90CA88B
:10245000FFF7E4FEDDE90C70002609F10105834673
:1024600047E001204B4600904FF000470AAA01A91F
:102470000CA8FFF7D3FEDDE90DB00C995D460026F0
:1024800010B909F101000D18B9EB050003D4C0F132
:10249000FF3609F10105A5EB09002BE0B9F1010FA9
:1024A00001DA4FF001090020B9F1110F0090484600
:1024B00001DD112300E003460AAA01A90CA8FFF7D9
:1024C000ADFEDDE90C704D460026834620780007FE
:1024D0000AD4AB4500DA5D4601A8012D04DD41199F
:1024E00011F8011C302907D04F4502DA17F1040F0B
:1024F00004DA012082460FE06D1EEEE7002F02DCB9
:10250000ED1B3E4403E0781CA84200DD7D1CB81B97
:1025100000F1010A4FF000472078000703D4AA45D4
:1025200001DB4FF0FF3A0021B7F1004F0DF14308F6
:102530008DF8431022D002202B23002F01DA7F4296
:102540002D234FF00A0C011EA0F1010000DC47B161
:1025500097FBFCF10CFB11720F46303208F8012D8D
:10256000F1E7A8F1010003702188090501D5452193
:1025700000E06521A0F1010800F8011C09980FA9ED
:10258000A1EB0807FF1D00B10120411901EBEA7022
:10259000A1693844081A401EA0612078C00602D400
:1025A0002046FFF7B3FC099828B1D4E901219047F0
:1025B000206A401C20622078C00622D52046FFF702
:1025C000A5FC1EE0002E04DBB34502DD01A8805D02
:1025D00000E03020D4E901219047206A401C2062AD
:1025E000761CAAF101005FEA000A0AD100F032F875
:1025F000C0680168405CD4E901219047206A401C12
:102600002062281EA5F10105DCDC07E0D4E90121E8
:1026100018F8010B9047206A401C2062381EA7F171
:102620000107F3DC2046FFF787FC022011B045E6E6
:10263000074B70B50D467B4400F05BF80446284616
:1026400000F016F910B14FF0FF3070BD204670BD9C
:1026500085E4FFFF004870473801002030B5B0F135
:102660000A024FEA900E71F100034EEA817EB0EB50
:102670000E0061EB91014FEA101E4EEA017E10EB55
:102680000E0041EB11114FEA102E4EEA016E10EBD5
:102690000E0041EB11214FEA104E4EEA014E10EBB5
:1026A0000E0041EB1141401841F100014FEAD0000A
:1026B00040EA41704FEAD10110EB80054FEA8104F6
:1026C00044EA907444EB01046D1944EB0404521B7A
:1026D000A3414FF0000348BF0A3200D530BD401C73
:1026E00041F1000130BD000001694A1C0261087817
:1026F000704700B58FB0CDE9013100210591054942
:102700007944CDE9031011466846FFF78DFC0FB000
:1027100000BD0000E5FFFFFF2DE9F0411F46044624
:1027200003260168072A01F4006004DB08B116A53E
:1027300005E016A503E008B115A500E015A521F0F8
:1027400010002060A069C01EA0610FB1401EA061F2
:102750002046FFF7DBFB4FB1D4E901213846904713
:10276000206A401C2062C01C206206E0206AFAE752
:10277000D4E9012115F8010B9047761EF8D22046C6
:10278000FFF7DAFBBDE8F0814E414E006E616E004E
:10279000494E4600696E66002DE9F04781461646AF
:1027A0008AB0324878440DC88DE80D002F4878442F
:1027B000801C03AC0DC884E80D0041F69B30372225
:1027C000014491FBF2F0A0F1800502FB10141B3CC8
:1027D00002D56442012000E00020DFF890A080468E
:1027E0000027FA44AAF1BA0A0DE0E00709D0324600
:1027F000684607EB47010AEB810100F032FB8DE8E8
:10280000070064107F1C002CEFD1184F7F44A83FB5
:1028100018E0E80714D007EB04100DF1180A90E84F
:102820000E008AE80E00C068F04201D198190890A5
:10283000324606A903A800F014FB03AB83E80700A7
:102840006D10641C002DE4D132466946B8F1000FCA
:1028500003A802D000F0F1FA01E000F002FBC9E9A0
:102860000001C9F808200AB0BDE8F087C40D0000D7
:10287000007B00F08000704700487047180100207E
:102880007546FFF7F9FFAE4605006946534620F04E
:102890000700854618B020B5FEF7C6F9BDE8204010
:1028A0004FF000064FF000074FF000084FF0000B0C
:1028B00021F00701AC46ACE8C009ACE8C009ACE8BF
:1028C000C009ACE8C0098D4670470446AFF30080EC
:1028D0002046FDF7B5FC00004FF0013C50F8042BFA
:1028E00051F8043B9A4221D1A2EB0C03934313EA23
:1028F000CC1317D150F8042B51F8043B9A4215D150
:10290000A2EB0C03934313EACC130BD150F8042B26
:1029100051F8043B9A4209D1A2EB0C03934313EA0A
:10292000CC13DBD04FF00000704700BFD01A01BAC3
:10293000B1FA81F101F0180122FA01F0CB40C1F1A6
:102940002001DBB2C0B2C01A2CFA01F3D11A9143B4
:1029500011EAC311E6D170475FEA400C08BF91F05D
:10296000000F4FEA8C234FEAC12243EA51514FEA4C
:102970001C5018BF00F5F0404FEA300018BF41F07E
:1029800000415FEA6C5C00F02980BCF1FF3F08BFAA
:1029900040F080407047130C06BF12044FF0100C3B
:1029A0004FF0000C130E04BF12020CF1080C130FB1
:1029B00004BF12010CF1040C930F04BF92000CF140
:1029C000020CD30F04BF52000CF1010C11464FF062
:1029D0000002A0F11F00A0EB0C00704711F0004FA7
:1029E00008BF704731F000413FF4D5AF0B0C06BF74
:1029F00009044FF0100C4FF0000C0B0E04BF09023D
:102A00000CF1080C0B0F04BF09010CF1040C8B0F27
:102A100004BF89000CF1020CCB0F04BF49000CF17C
:102A2000010CCCF12003A0EB0C0022FA03F302FA14
:102A30000CF241EA030100F10100704720F07F4CE5
:102A400080EA030023F07F47ACEB070303F57C53D8
:102A500000F0004003F1FF032DE980494FEA154BD8
:102A600009B44FEA144325EA0B4E24EA03480FF257
:102A7000042606EB132749083E785FEA320203FB7F
:102A80000667C7F5000707FB06F64FEA54374FEA1B
:102A9000D64606F1020607FB066CCCF1005C4FEA55
:102AA0001C472CEA074C07FB06F40CFB06F504EB6D
:102AB00015464FEA961634BF00204FF000404FEA0B
:102AC000D13706FB07FC4FEA1C4C0CFB0BF7D21B63
:102AD00003FB0CF761EB07010CFB0EF7B0EB0740B3
:102AE00072EB17420CFB08F734BFA2EB0742B2EBC4
:102AF000074261EB17414FEA0C444FEA910706FB8E
:102B000007FC4FEA1C4C0CFB0BF7B0EBC74072EB19
:102B1000573203FB0CF734BFA2EBC742B2EBC742FC
:102B200061EB57310CFB0EF7B0EBC70072EB57723D
:102B30000CFB08F734BFA2EBC702B2EBC70261EB94
:102B40005771039F4FEA816141EA921104EBCC0473
:102B50004FEAD1374FEA826206FB07FC42EA901245
:102B60004FEA80604FEA1C4C0CFB0BF7D21B03FBB7
:102B70000CF761EB07010CFB0EF7B0EB074072EBB3
:102B800017420CFB08F734BFA2EB0742B2EB074237
:102B900061EB17414FEA8C554FEA910704EB9C24F7
:102BA00006FB07FC4FEA1C4C0CFB0BF7B0EBC740D5
:102BB00072EB573203FB0CF734BFA2EBC742B2EB08
:102BC000C74261EB57310CFB0EF7B0EBC70072EB5D
:102BD00057720CFB08F734BFA2EBC702B2EBC70277
:102BE00061EB577115EB4C254FEA816141EA921177
:102BF0004FEA82624FEAD13742EA901206FB07FCA5
:102C000044F100044FEA80604FEA1C4C0CFB0BF7C8
:102C1000D21B03FB0CF761EB07010CFB0EF7B0EBCB
:102C2000074072EB17420CFB08F734BFA2EB0742D8
:102C3000B2EB074261EB174115EB1C154FEA8131EE
:102C400041EA92414FEA823242EA90424FEA8030B2
:102C50004FEA0C7644F1000448EA03434EEA0B487D
:102C60004FF0000EB2EB080C71EB030724BF624675
:102C700039464EEB0E0E4FF0000B00185241494101
:102C80004BEB0B0BB2EB080C71EB03077BF1000B6A
:102C900024BF624639464EEB0E0E4FF0000B001873
:102CA000524149414BEB0B0BB2EB080C71EB0307A4
:102CB0007BF1000B24BF624639464EEB0E0E51EA03
:102CC000020718BF46F0010616EB0E7655F100021A
:102CD00054F1000103D5BDE88901BDE80088BDE8D5
:102CE0008901B619BDE80048524141EB0101A3F149
:102CF0000103704780807F7E7D7C7B7A7978777650
:102D000076757473727171706F6E6E6D6C6C6B6AC8
:102D10006A69686867666665646463636261616066
:102D2000605F5F5E5E5D5D5C5C5B5B5A5A595958E3
:102D3000585757565655555554545353525252514D
:102D4000515050504F4F4F4E4E4D4D4D4C4C4C4BA3
:102D50004B4B4A4A4A4949494848484747474746EA
:102D60004646454545444444444343434342424226
:102D700042414141002B26D4770021D01CB54FEAB7
:102D8000370703B44FF010004FF010014FF0000070
:102D90000FBC0BF1010BBDE81040BBF1010F08BFE8
:102DA0005FEA170722BF12F1010211F101014FF092
:102DB000004143F1000300F0004043EA0000704787
:102DC000F9D35708DAE746EA064613F1400F4FEA0F
:102DD00016461FDD13F1200FDFBF16430A46002100
:102DE00020335B42C8D0C3F1200746EA064602FA08
:102DF00007F74FEA164646EA0706C3F1200722FA0C
:102E000003F201FA07F721FA03F14FF0000342EA57
:102E10000702B1E746EA020646EA06464FEA1646C8
:102E200046EA0106BCBF46EA0646360C4FF00003F0
:102E30004FF000024FF000019EE72DE9C048934695
:102E400030B491E8380007C831EA400C48BF34EA92
:102E5000430C03D5FFF7F2FDFFF78CFFF0BCBDE894
:102E600000882DE9C048934630B491E8380007C87F
:102E700010F0804F08BF13F0804F03D100F005F829
:102E8000FFF778FFF0BCBDE8008820F07F4780EABC
:102E9000030023F07F4C07EB0C03A3F57C5300F0F9
:102EA0000040A3F1FE0392F0000F00F0B38095F014
:102EB000000F00F077802DE901494FEA11404FEAF9
:102EC000144621EA004800FB06FC24EA064708FBFA
:102ED00006F607FB08F800FB07F718EB06484CEB73
:102EE000164C4FEA124B18EB07484FEA15464CEBCD
:102EF000174022EA0B4E0BFB06FC25EA06470EFBA9
:102F000006F607FB0EFE0BFB07F71EEB064E4CEB1F
:102F1000164C4FF000061EEB074E4CEB174B18EB10
:102F20000B0840F1000018EB0E0B58EB000840F1C5
:102F300000008F1A4FF000013CBFC943661B14BF4D
:102F4000B5EB040C00213CBFC943F61B4FEA174404
:102F50004EEA8E0E27EA04454FEA1C4704FB07623F
:102F60002CEA074C05FB07F70CFB05F604FB0CFCF1
:102F700016EB074642EB174216EB0C4642EB1C429F
:102F80001BEB060658EB0202414146EA9E0601D5BC
:102F9000BDE80189B619524141EB0101A3F10103DA
:102FA000BDE801894FEA14454FEA114724EA054676
:102FB00021EA074C05FB07F406FB07F70CFB06F1BB
:102FC00005FB0CFC11EB074144EB17444FEA124799
:102FD00011EB0C4144EB1C4422EA074C05FB07F2C1
:102FE00006FB07F70CFB06F605FB0CFC16EB074689
:102FF00042EB174216EB0C4642EB1C456A1854F1A3
:10300000000148BF7047B619524141EB0101A3F1DD
:103010000103704795F0000F37D04FEA11424FEA95
:10302000144721EA024624EA074C02FB07F106FB9B
:1030300007F70CFB06F402FB0CFC14EB074441EB16
:1030400017414FEA154714EB0C4441EB1C4125EAAC
:10305000074C02FB07F506FB07F70CFB06F602FB25
:103060000CFC16EB074645EB174516EB0C4645EBFB
:103070001C42121951F1000148BF7047B619524164
:1030800041EB0101A3F1010370474FEA14454FEAF8
:10309000114724EA054621EA074C05FB07F106FB28
:1030A00007F70CFB06F24FF0000605FB0CFC12EBD9
:1030B000074241EB174112EB0C4251EB1C4148BF58
:1030C0007047921841EB0101A3F10103704703B46B
:1030D00001984100009850EAC12018BF04204A0D11
:1030E00018BF40F0010040F2FF72B2EB515F08BF21
:1030F00040F00200012808BF052002B070473038B8
:103100000A2801D2012070470020704710B500291D
:103110000AD00878002807D005487844FFF7DCFB80
:10312000002801D0002010BD0248784410BD0000E6
:10313000EA040000E204000021F00042A2F1605223
:10314000B2F5801F01F0004328BFD2F17F6C0BD98C
:103150005FEA001C43EAC20242EB507018BF70479E
:1031600028BF20F001007047B2F5801FBCBF184691
:1031700070474FEA410C1CF5001F02D2084600F0D0
:1031800093B970B500F0C6F800000089FFF7F6BFEC
:103190004FF00040A0F580007047B0FA80F310FABD
:1031A00003F10AD0C3F11D0303F580634FEA4150D8
:1031B0004FEA035202EBD12170474FF000007047F5
:1031C000DFF848C170B51CEA111E1EBF1CEA1315BA
:1031D0009EEA0C0F95EA0C0F00F06F8081EA030461
:1031E00023EA4C134EEAD47E21EA4C1141F48011BB
:1031F00043F48013AE44A1FB024CA0FB0365AEF187
:103200007F7E361955EB0C05A1FB034C4CF10003F6
:10321000A0FB021C16EB0C06654153F100030942AA
:1032200018BF46F0010613F4007F0BD14FEA0331BB
:103230004FEA0530340341EA155140EA16506FF069
:1032400003020AE04FEAC3214FEAC520F40241EA33
:10325000555140EA56506FF0020202EB2E4201EB4C
:10326000025585EACE710AD05FEA440C18BF24F0FB
:10327000004450F1000041F1000120EAD47040F216
:10328000FE7C624500D270BDA84214BF4FF080445E
:103290004FF04044002E08BF0024BEF1806FA8BF4D
:1032A000A1F1C041BDE8704080F282804FF0000083
:1032B00001F1C04101F0004170479EEA0C0F0CEA99
:1032C000131518BF95EA0C0F06D04FF0000081EAE5
:1032D000030E0EF0004170BD00F01CF88900013EA5
:1032E00000F007B800F009B84FEA430C5FEA5C5CF5
:1032F00008D081EA030100F05BB84FEA410C5FEAB5
:103300005C5CF6D14FF00000014970470000FF07F8
:103310000000F87F0EF1020E2EF0030E5EF8046B33
:10332000364205D4012A43EB030515F5001F12D8D8
:10333000012841EB010C1CF5001F0CD80ED14FEAFF
:10334000D17C15F5001F0CEB4C0C0CF1020C08BFE6
:103350004CEBD37C04E04FF0080C01E04FEAD37C47
:103360000CEB4C0526FA05F606F00706B6F1040C40
:1033700006D20EEB860CBDE870404CF0010C6047A5
:10338000DFE80CF0090B02024FF000414FF00000A3
:10339000A1F5002170BD19461046012851EB01042A
:1033A00018BFD4F5001484BF002001F0004170BDA7
:1033B0000808A0F500114FEA3101704743004FEAB9
:1033C000D30C4FEA3C0C43401FBF40070CF1605147
:1033D00013F0FE4F70471CF0006F03D100200CF07B
:1033E000004170470CF0004343EA507010B540EACA
:1033F000CC0000F00EF800BF000000924FEA000180
:10340000FFF7D6BF4FF000414FF00000A1F50021BB
:1034100070470EF1020E2EF0030E5EF8044B2442AC
:1034200004D44FEA4102B2F17F4F11D84FEA400372
:10343000B3F17F4F0CD80ED14FEAD07CB2F17F4F61
:103440000CEB4C0C0CF1020C08BF4CEBD17C04E0F3
:103450004FF0080C01E04FEAD17C0CEB4C0324FA4E
:1034600003F404F00704B4F1040C06D20EEB840C50
:10347000BDE810404CF0010C6047DFE80CF0070895
:1034800002024FF00040A0F5800010BD0846420047
:1034900018BFD2F1807288BF00F0004010BD4FF01D
:1034A0004070E1EE100A7047FF2141EAD050C0059C
:1034B0007047FEF789BF303132333435363738390B
:1034C0004142434445464030580030313233343570
:1034D00036373839616263646566403078000400CD
:1034E00000080000000000000002000100001000C1
:1034F00002400000000000A00000000005400000A5
:10350000000000C8000000000C4000000000409CCB
:1035100000000000194000000020BCBE00000000B8
:1035200034400000BFC91B8E00000004B5400000FD
:10353000504BCFD06607E2CF010000006C41000085
:103540003E8251AADFEEA73401000000D9420000FC
:10355000DCB5A0E23A301F97FFFFFFFFB445000043
:10356000FD25A0C8E9A3C14FFFFFFFFFFF3F0000FB
:103570000000008000000000FF3F0000000000800D
:10358000000000000D0A2064696769745F73656C50
:10359000656374202564202020646973706C6179F0
:1035A0005F64696769742025642020206E756D5FF3
:1035B0007461626C655B646973706C61795F646986
:1035C0006769745D20307825303278202064697313
:1035D000706C61795F646563696D616C2025640D51
:1035E0000A00000020360008000000205000000003
:1035F000C4010008703600085000002028070000B1
:10360000E00100081C00000043000000F8FFFFFF7D
:103610000C0000000E0000000F0000002E00000053
:10362000007A030A00000000000000000102030409
:103630000607080900090A0B0C3F065B4F666D7D03
:10364000077F6F000000000000000000CDCC8C3F21
:10365000000000000000000000000000000000006A
:103660000000010203040102030406070809000028
:040000050800018965
:00000001FF
